{
  "_format": "hh-sol-artifact-1",
  "contractName": "Library",
  "sourceName": "contracts/Library.sol",
  "abi": [
    {
      "anonymous": false,
      "inputs": [
        {
          "indexed": false,
          "internalType": "address",
          "name": "recipient",
          "type": "address"
        },
        {
          "indexed": false,
          "internalType": "uint256",
          "name": "bookId",
          "type": "uint256"
        }
      ],
      "name": "AddBook",
      "type": "event"
    },
    {
      "anonymous": false,
      "inputs": [
        {
          "indexed": false,
          "internalType": "uint256",
          "name": "bookId",
          "type": "uint256"
        },
        {
          "indexed": false,
          "internalType": "bool",
          "name": "finished",
          "type": "bool"
        }
      ],
      "name": "SetFinished",
      "type": "event"
    },
    {
      "inputs": [
        {
          "internalType": "string",
          "name": "name",
          "type": "string"
        },
        {
          "internalType": "uint16",
          "name": "year",
          "type": "uint16"
        },
        {
          "internalType": "string",
          "name": "author",
          "type": "string"
        },
        {
          "internalType": "bool",
          "name": "finished",
          "type": "bool"
        }
      ],
      "name": "addBook",
      "outputs": [],
      "stateMutability": "nonpayable",
      "type": "function"
    },
    {
      "inputs": [],
      "name": "getFinishedBook",
      "outputs": [
        {
          "components": [
            {
              "internalType": "uint256",
              "name": "id",
              "type": "uint256"
            },
            {
              "internalType": "string",
              "name": "name",
              "type": "string"
            },
            {
              "internalType": "uint256",
              "name": "year",
              "type": "uint256"
            },
            {
              "internalType": "string",
              "name": "author",
              "type": "string"
            },
            {
              "internalType": "bool",
              "name": "finished",
              "type": "bool"
            }
          ],
          "internalType": "struct Library.Book[]",
          "name": "",
          "type": "tuple[]"
        }
      ],
      "stateMutability": "view",
      "type": "function"
    },
    {
      "inputs": [],
      "name": "getUnfinishedBook",
      "outputs": [
        {
          "components": [
            {
              "internalType": "uint256",
              "name": "id",
              "type": "uint256"
            },
            {
              "internalType": "string",
              "name": "name",
              "type": "string"
            },
            {
              "internalType": "uint256",
              "name": "year",
              "type": "uint256"
            },
            {
              "internalType": "string",
              "name": "author",
              "type": "string"
            },
            {
              "internalType": "bool",
              "name": "finished",
              "type": "bool"
            }
          ],
          "internalType": "struct Library.Book[]",
          "name": "",
          "type": "tuple[]"
        }
      ],
      "stateMutability": "view",
      "type": "function"
    },
    {
      "inputs": [
        {
          "internalType": "uint256",
          "name": "bookId",
          "type": "uint256"
        },
        {
          "internalType": "bool",
          "name": "finished",
          "type": "bool"
        }
      ],
      "name": "setFinished",
      "outputs": [],
      "stateMutability": "nonpayable",
      "type": "function"
    }
  ],
  "bytecode": "0x6080604052348015600f57600080fd5b50610a318061001f6000396000f3fe608060405234801561001057600080fd5b506004361061004c5760003560e01c80636aa835a814610051578063a8bbee8a14610066578063b75b4e5a14610084578063c079766d1461008c575b600080fd5b61006461005f36600461061f565b61009f565b005b61006e610144565b60405161007b9190610691565b60405180910390f35b61006e610155565b61006461009a3660046107e3565b610161565b600082815260016020526040902054336001600160a01b03909116036101405780600083815481106100d3576100d3610876565b906000526020600020906005020160040160006101000a81548160ff0219169083151502179055507fa4f349f92993cc89f62be8c4bead1bd7d76d2e9c4d05da59739c6e0dd75f042c82826040516101379291909182521515602082015260400190565b60405180910390a15b5050565b6060610150600161029b565b905090565b6060610150600061029b565b600080546040805160a0810182528281526020810188815261ffff8816928201929092526060810186905284151560808201526001830184559280528251600583027f290decd9548b62a8d60345a988386fc84ba6bc95484008f6362f93160ef3e5638101918255915192939290917f290decd9548b62a8d60345a988386fc84ba6bc95484008f6362f93160ef3e56401906101fd9082610915565b50604082015160028201556060820151600382019061021c9082610915565b50608091909101516004909101805460ff19169115159190911790556000818152600160209081526040918290208054336001600160a01b0319909116811790915582519081529081018390527f10545577c692a22f651e69221c47ad4418e40434b36f4e2411bc54007aa8cbb9910160405180910390a15050505050565b600080546060919067ffffffffffffffff8111156102bb576102bb61073e565b60405190808252806020026020018201604052801561032057816020015b61030d6040518060a00160405280600081526020016060815260200160008152602001606081526020016000151581525090565b8152602001906001900390816102d95790505b5090506000805b600054811015610533576000818152600160205260409020546001600160a01b03163314801561038357508415156000828154811061036857610368610876565b600091825260209091206004600590920201015460ff161515145b1561052b576000818154811061039b5761039b610876565b90600052602060002090600502016040518060a0016040529081600082015481526020016001820180546103ce9061088c565b80601f01602080910402602001604051908101604052809291908181526020018280546103fa9061088c565b80156104475780601f1061041c57610100808354040283529160200191610447565b820191906000526020600020905b81548152906001019060200180831161042a57829003601f168201915b505050505081526020016002820154815260200160038201805461046a9061088c565b80601f01602080910402602001604051908101604052809291908181526020018280546104969061088c565b80156104e35780601f106104b8576101008083540402835291602001916104e3565b820191906000526020600020905b8154815290600101906020018083116104c657829003601f168201915b50505091835250506004919091015460ff161515602090910152835184908490811061051157610511610876565b60200260200101819052508180610527906109d4565b9250505b600101610327565b5060008167ffffffffffffffff81111561054f5761054f61073e565b6040519080825280602002602001820160405280156105b457816020015b6105a16040518060a00160405280600081526020016060815260200160008152602001606081526020016000151581525090565b81526020019060019003908161056d5790505b50905060005b82811015610601578381815181106105d4576105d4610876565b60200260200101518282815181106105ee576105ee610876565b60209081029190910101526001016105ba565b50949350505050565b8035801515811461061a57600080fd5b919050565b6000806040838503121561063257600080fd5b823591506106426020840161060a565b90509250929050565b6000815180845260005b8181101561067157602081850181015186830182015201610655565b506000602082860101526020601f19601f83011685010191505092915050565b6000602082016020835280845180835260408501915060408160051b86010192506020860160005b8281101561073257603f19878603018452815180518652602081015160a060208801526106e960a088018261064b565b9050604082015160408801526060820151878203606089015261070c828261064b565b6080938401511515989093019790975250945060209384019391909101906001016106b9565b50929695505050505050565b634e487b7160e01b600052604160045260246000fd5b600082601f83011261076557600080fd5b813567ffffffffffffffff81111561077f5761077f61073e565b604051601f8201601f19908116603f0116810167ffffffffffffffff811182821017156107ae576107ae61073e565b6040528181528382016020018510156107c657600080fd5b816020850160208301376000918101602001919091529392505050565b600080600080608085870312156107f957600080fd5b843567ffffffffffffffff81111561081057600080fd5b61081c87828801610754565b945050602085013561ffff8116811461083457600080fd5b9250604085013567ffffffffffffffff81111561085057600080fd5b61085c87828801610754565b92505061086b6060860161060a565b905092959194509250565b634e487b7160e01b600052603260045260246000fd5b600181811c908216806108a057607f821691505b6020821081036108c057634e487b7160e01b600052602260045260246000fd5b50919050565b601f82111561091057806000526020600020601f840160051c810160208510156108ed5750805b601f840160051c820191505b8181101561090d57600081556001016108f9565b50505b505050565b815167ffffffffffffffff81111561092f5761092f61073e565b6109438161093d845461088c565b846108c6565b6020601f821160018114610977576000831561095f5750848201515b600019600385901b1c1916600184901b17845561090d565b600084815260208120601f198516915b828110156109a75787850151825560209485019460019092019101610987565b50848210156109c55786840151600019600387901b60f8161c191681555b50505050600190811b01905550565b6000600182016109f457634e487b7160e01b600052601160045260246000fd5b506001019056fea2646970667358221220e6eb8f059929458edbc1785239f9c310d614eae815e0ee9da855be0b0f28430764736f6c634300081b0033",
  "linkReferences": {},
  "deployedLinkReferences": {}
}